:040000000C942A0032
:14005400CFE5D4E0CDBFDEBFC051D0400AEA08830024E0E67D
:14006800F0E010E0E036F10711F00192FBCF0083E4E5F0E03C
:14007C00A0E6B0E010E0E435F10721F0C89531960D92F9CFBD
:140090000E946100FFCF0E947A00442755270BC06627772792
:1400A40002C06F5F7F4F6A33E2E07E07D0F34F5F5F4F401790
:1400B800510790F30E94710008958FEF87BB88BB0AC08AEA68
:1400CC0088BB04EF11E0E1DF85E588BB04EF11E0DCDFF5CF29
:1400E0000895E2E00C948000FA92EA92DA92CA92BA92AA9235
:1400F4007A936A935A934A930895E1E049915991E0FD089588
:1401080069917991E1FD0895A990B990E2FD0895C990D990A4
:0A011C00E3FD0895E990F9900895BD
:00000001FF
