:040000000C945A0002
:14005400202000B5B1C7B0B0B4BCFCCAC7A3BA0068747470B1
:140068003A2F2F7777772E686C656C656374726F6E2E636F29
:14007C006D202000415652B5A5C6ACBBFA5253323332CDA8A8
:14009000D0C5B2E2CAD4B3CCD0F2202000C9CFBAA3BAECC0B9
:1400A400E2B5E7D7D3D3D0CFDEB9ABCBBE202000CFE5D4E03B
:1400B800CDBFDEBFC051D0400AEA08830024E0ECF0E010E0BB
:1400CC00E03CF10711F00192FBCF0083E4E5F0E0A0E6B0E07C
:1400E00010E0E43BF10721F0C89531960D92F9CF0E94AE0019
:1400F400FFCF8FEF8BBB22242ABA88BB87BB85BB24BA82BB5C
:1401080082E081BB089522242AB882E08BB986E080BD87E6CA
:14011C0089B920BC88E18AB90895E7DFF2DF08955D9BFECF6F
:140130000CB908950E94CD00A80105C0FA010081F5DF4F5F7E
:140144005F4FFA0120802220B9F70E94D00008955F9BFECF96
:140158000CB10895E4DF09EA10E0E8DF0CE810E0E5DF00E73D
:14016C0010E0E2DF0AC0F0DF402F03E610E0DCDF042FD6DF4A
:1401800000E610E0D7DFF5CF0895FA92EA92DA92CA92BA9262
:14019400AA927A936A935A934A930895E1E049915991E0FD48
:1401A800089569917991E1FD0895A990B990E2FD0895C990D0
:0C01BC00D990E3FD0895E990F9900895B2
:00000001FF
