:040000000C9430002C
:140054003F065B4F666D7D077F6FFEFDCFE5D4E0CDBFDEBFD8
:14006800C051D0400AEA08830024E0E6F0E010E0E036F1072C
:14007C0011F00192FBCF0083E0E6F0E0A0E6B0E010E0E036DD
:14009000F10721F0C89531960D92F9CF0E946700FFCF0E944F
:1400A400EE00442755270BC06627772702C06F5F7F4F6A3382
:1400B800E2E07E07D0F34F5F5F4F4017510790F30E94E50015
:1400CC00089544278FEF8ABB84BB222421BA2BBA85BB82BB93
:1400E00038C0849903C0433608F44395859904C02224241685
:1400F40008F44A95662729C02AE030E0042F11270E94AB00D5
:14010800F80184E590E0E80FF91FE491EBBBEEE5F0E0E491CF
:14011C00E5BB01E010E0BFDF2AE030E0042F11270E94AF00EA
:14013000F80184E590E0E80FF91FE491EBBBEFE5F0E0E491A6
:14014400E5BB01E010E0ABDF63956436A8F2C7CF0895689451
:14015800DA92D12E04C0E894DA92D12ED32617FF04C0109505
:14016C0000950F5F1F4F37FF04C0309520952F5F3F4F0E94DC
:14018000CC00D7FE04C0109500950F5F1F4FD99008956894EE
:1401940001C0E894EA92FA928A93EE24FF2480E1000F111F20
:1401A800EE1CFF1CE216F30618F0E21AF30A03958A95A1F7DD
:1401BC0016F40E2D1F2D8991F990E9900895E2E00C94F4008F
:1401D000FA92EA92DA92CA92BA92AA927A936A935A934A93EF
:1401E4000895E1E049915991E0FD089569917991E1FD0895EC
:1401F800A990B990E2FD0895C990D990E3FD0895E990F990B4
:02020C00089553
:00000001FF
