:040000000C9431002B
:040024000C946F00C9
:140054003F065B4F666D7D077F6FFEFDFBF7CFE5D4E0CDBF83
:14006800DEBFC051D0400AEA08830024E0E6F0E010E0E63681
:14007C00F10711F00192FBCF0083E2E6F0E0A0E6B0E010E0F9
:14009000E236F10721F0C89531960D92F9CF0E945401FFCFEB
:1400A4008FE78BBB8ABB8FEF88BB87BB85BB84BB82BB81BB4C
:1400B800089583EE86B987EC87B9089583E882BF83E083BF46
:1400CC0081E089BF0895E8DFF7DFF1DF80E88FBF08952A925E
:1400E0000A931A932A933A938A939A93EA93FA932FB62A9243
:1400F4000E94380283E882BF809160008F5F8093600080918D
:1401080061008F5F282E2092610083E0821518F4222420922D
:14011C0061004091610055274030450779F04130E0E05E0705
:14013000F9F04230E0E05E0709F432C04330E0E05E0709F4B7
:1401440045C057C02AE030E000916200109163000E946D016A
:14015800F80184E590E0E80FF91FE491EBBBEEE5F0E0E4917F
:14016C00E5BB43C02AE030E000916200109163000E946F01B9
:140180002AE030E00E946D01F80184E590E0E80FF91FE491EB
:14019400EBBBEFE5F0E0E491E5BB2BC024E630E00091620000
:1401A800109163000E946F012AE030E00E946D01F80184E5A1
:1401BC0090E0E80FF91FE491EBBBE0E6F0E0E491E5BB13C017
:1401D00028EE33E000916200109163000E946F01F80184E587
:1401E40090E0E80FF91FE491EBBBE1E6F0E0E491E5BB0E941F
:1401F8003B0229902FBEF991E991999189913991299119919A
:14020C0009912990189524B1332705B111271801322C222404
:14022000220E331E810108950E9434025801249715014424C0
:14023400552448E853E160E070E05A924A923A922A928A016E
:140248009B010E94FA014FEF53E060E070E07A936A935A9371
:14025C004A930E948F01FE010083118322833383FE01A080EF
:14027000B180850124960E942D0208950E94360244275527DA
:140284000BC06627772702C06F5F7F4F6C38E0E07E07D0F366
:140298004F5F5F4F4017510790F30E942A02089514DF15C091
:1402AC0084E620906000821568F4ADDF109365000093640046
:1402C000B3DF10936300009362002224209260000AE010E06B
:1402D400D3DFEACF0895689401C0E894EA92FA928A93EE249E
:1402E800FF2480E1000F111FEE1CFF1CE216F30618F0E21A25
:1402FC00F30A03958A95A1F716F40E2D1F2D8991F990E990F5
:140310000895E89401C068942FD0CC2408C0E89401C0689413
:1403240029D037FD53D0B7FD5AD0772488249924AA24BB24E6
:1403380041D0C1F044D0B1F0E8E2000F111F221F331F771C0B
:14034C00881C991CAA1CBB1C88169906AA06BB0628F0881A3F
:14036000990AAA0ABB0A0395EA9559F726F4082D192D2A2D1A
:140374003B2D13C07A928A929A92AA92BA92CA92EA938A9368
:140388009A93AA93BA938B859C85AD85BE85C32E0EF0CB2624
:14039C000895C7FC17D0B991A99199918991E991C990B99022
:1403B000A99099908990799024960895E02FE12BE22BE32B28
:1403C4000895E82FE92BEA2BEB2B08950095109520953095E1
:1403D8000F5F1F4F2F4F3F4F089580959095A095B0958F5FEA
:1403EC009F4FAF4FBF4F08950E944F027F920E94680239F12C
:1404000077240E946E0219F48C019D0120C0089FB02CA12CD3
:14041400289F902C812C189FA00C911C871C099FA00C911CF0
:14042800871C199F900C811C0A9F900C811C389F800C299F1F
:14043C00800C1A9F800C0B9F800C0B2D1A2D292D382D7F905C
:140450000C945D02E2E00C943C02E4E00C943C02FA92EA924F
:14046400DA92CA92BA92AA927A936A935A934A930895E1E002
:1404780049915991E0FD089569917991E1FD0895A990B99031
:14048C00E2FD0895C990D990E3FD0895E990F99008958A92E6
:1404A0009A92AA92BA92EA938A939A93AA93BA9389859A8516
:1404B400AB85BC850895B991A99199918991E991B990A99062
:1404C8009990899024960895EE27E02BE12BE22BE32B0895A3
:0C04DC00EE27E82BE92BEA2BEB2B089510
:00000001FF
