:040000000C943B0021
:040020000C94080331
:140054002D54696D652020203A20203A20202D2D002D41546C
:14006800696D652020203A20203A202D2D00CFE5D4E0CDBFC7
:14007C00DEBFC051D0400AEA08830024E0E6F0E010E0E8366B
:14009000F10711F00192FBCF0083E6E7F0E0A0E6B0E010E0E0
:1400A400E637F10721F0C89531960D92F9CF0E94A201FFCF84
:1400B8000E949903C22EE02E2197AB84BC84442701C04395CD
:1400CC00E42FFF27EA0DFB1DE4918FE18E17B8F3662714C042
:1400E000E62FFF27EA0DFB1DE491E8832C2D2E2C822D8F5F92
:1400F400E82E022D1ED08E2D803119F4EE2481E0C8266395F3
:14010800641750F321960E94960308950E949D03622FA02EF5
:14011C004F774A2D4F70617009F0406440682227042F31D040
:140130000E94930308950E949F03622F402F262F042FE8DF53
:140144000C8138D00E9490030895222708E31FD005E010E048
:14015800B4D2222708E319D005E010E0AED2222708E313D084
:14016C0005E010E0A8D221E008E30DD021E008E00AD021E0A3
:1401800001E007D021E006E004D021E00CE001D008950E94FB
:140194009F03622F402F662309F01CD0C098C19800004BBB90
:1401A8000000C29A00000000C2980E94900308950E94A10375
:1401BC00402F0CD0C09AC19800004BBB0000C29A00000000CF
:1401D000C2980E94A40308958FEF8BBBC098C19A0000C29A08
:1401E4000000000022242ABA09B301C009B307FDFDCFC2987A
:1401F8008FEF8ABB089522242BBA8FEF8ABB28BA87BB25BAA2
:14020C0083E084BB8FEF82BB21BA089500B308950E94A10373
:1402200084EA86BF26B627FEFDCF81B1887F883011F0002731
:1402340040C080EA83B984E886BF26B627FEFDCF81B1887F59
:14024800883111F0002733C003B984E886BF26B627FEFDCF94
:14025C0081B1887F883211F0002727C084EA86BF26B627FED8
:14027000FDCF81B1887F803111F000271CC081EA83B984E8AD
:1402840086BF26B627FEFDCF81B1887F803411F000270FC070
:1402980084E886BF26B627FEFDCF81B1887F883511F00027B6
:1402AC0004C043B184E986BF042F0E94A40308950E949F0377
:1402C000422F602F84EA86BF26B627FEFDCF81B1887F8830B9
:1402D40011F001E02BC080EA83B984E886BF26B627FEFDCF25
:1402E80081B1887F883111F001E01EC063B984E886BF26B6A7
:1402FC0027FEFDCF81B1887F883211F001E012C043B984E8EE
:1403100086BF26B627FEFDCF81B1887F883211F001E006C02C
:1403240084E986BF0AE010E0CAD100270E949003089583EF33
:140338008DBD8BEC8CBD84E08EBD08952297B3D100E911E044
:14034C00BAD1FFDE21E001E01EDF21E00CE01BDF84E590E096
:140360009983888322270027A7DE0AE010E0A9D185E690E03E
:140374009983888321E000279DDE0AE010E09FD142C11AE064
:14038800009164000E947A03802F805D8883222706E0CDDEDC
:14039C000AE010E090D11AE0009164000E947803802F805D7A
:1403B0008883222707E0BFDE0AE010E082D11AE00091650044
:1403C4000E947A03802F805D8883222709E0B1DE0AE010E0D4
:1403D80074D11AE0009165000E947803802F805D88832227DF
:1403EC000AE0A3DE0AE010E066D11AE0009166000E947A0371
:14040000802F805D888322270CE095DE0AE010E058D11AE0AC
:14041400009166000E947803802F805D888322270DE087DE8E
:140428000AE010E04AD11AE0009160000E947A03802F805D35
:14043C00888321E007E079DE0AE010E03CD11AE00091600090
:140450000E947803802F805D888321E008E06BDE0AE010E0D8
:140464002ED11AE0009161000E947A03802F805D888321E0E2
:140478000AE05DDE0AE010E020D11AE0009161000E94780377
:14048C00802F805D888321E00BE04FDE0AE010E012D1BCDE55
:1404A000602F462F55274F3DE0E05E0709F441C08FED90E02D
:1404B4008417950784F04F37E0E05E0709F45DC04F37E0E07E
:1404C8005E070CF493C04F3BE0E05E0709F43CC08DC0473FED
:1404DC00E0E05E0709F472C087EF90E0841795072CF04F3EF2
:1404F000E0E05E0739F07EC04B3FE0E05E0709F44CC078C07C
:14050400809165008F5F809365008BE320906500821508F0F5
:140518006DC022242092650080916400873108F065C08F5F0D
:14052C008093640061C0809164008F5F8093640087E1209031
:140540006400821508F056C022242092640052C080916100BE
:140554008F5F809361008BE320906100821508F047C02224D6
:140568002092610080916000873108F03FC08F5F80936000EB
:14057C003BC0809160008F5F8093600087E12090600082158F
:1405900088F52224209260002DC0209160000BE08DDE0AE044
:1405A40010E08DD0209161000CE086DE0AE010E086D087E5F8
:1405B800888321E00DE0BBDD0AE010E07ED016C00BE028DEAF
:1405CC00009360000AE010E076D00CE021DE009361000AE03F
:1405E00010E06FD082E5888321E00DE0A4DD0AE010E067D0E6
:1405F4000CE211E064D080E2888321E00DE099DD0AE010E035
:140608005CD0BDCE229608952A923A928A939A932FB62A925F
:14061C0083EF8DBD8BEC8CBD809167008F5F282E2092670079
:140630008A3040F0222420926700809166008F5F809366008F
:14064400809166008C3340F0222420926600809165008F5F7A
:1406580080936500809165008C3340F0222420926500809143
:14066C0064008F5F8093640080916400883118F02224209283
:1406800064002090600030906400321441F420906100309082
:140694006500321411F4C79801C0C79A29902FBE9991899137
:1406A800399029901895F894A6DD41DE222425BE2BBE84E06B
:1406BC0089BF789408950E94A103A80105C008EE13E008D0C4
:1406D0004150504040304507C1F70E94A403089501501040FA
:1406E40081E090E080179107CCF30895689401C0E8942A93B0
:1406F800FA92EA92FF24EE2420E1000FFF1CEE1CE11610F085
:14070C00E11A03952A95B9F70EF40E2DE990F9902991089541
:14072000E2E00C94A503E4E00C94A503EE270C94A503FA92C6
:14073400EA92DA92CA92BA92AA927A936A935A934A93089574
:14074800E1E049915991E0FD089569917991E1FD0895A990E6
:14075C00B990E2FD0895C990D990E3FD0895E990F9900895E6
:00000001FF
