:040000000C942A0032
:14005400CFE5D4E0CDBFDEBFC051D0400AEA08830024E0E67D
:14006800F0E010E0E036F10711F00192FBCF0083E4E5F0E03C
:14007C00A0E6B0E010E0E435F10721F0C89531960D92F9CFBD
:140090000E945E00FFCF002711270BC02227332702C02F5F71
:1400A4003F4F243FE1E03E07D0F30F5F1F4F083EE3E01E0784
:1400B80088F308958FEF87BB88BB06C0222428BAE6DF8FEFE8
:0800CC0088BBE3DFF9CF0895C2
:00000001FF
