:040000000C942A0032
:14005400CFE5D4E0CDBFDEBFC051D0400AEA08830024E0E67D
:14006800F0E010E0E036F10711F00192FBCF0083E4E5F0E03C
:14007C00A0E6B0E010E0E435F10721F0C89531960D92F9CFBD
:140090000E947600FFCF01E010E002C00F5F1F4F0637E4E006
:1400A4001E07D0F308950E94B200B8014427552703C0EFDF3E
:1400B8004F5F5F4F46175707D0F30E94A900089522242BBA47
:1400CC002ABA8FEF88BB87BB25BA24BA22BA21BA0895A895EB
:1400E00088E081BD0895F0DFFADF0895FCDF2FC08EEF88BBFA
:1400F40003E010E0D8DF8DEF88BB03E010E0D3DF8BEF88BB6D
:1401080003E010E0CEDF87EF88BB03E010E0C9DFA8958FEE75
:14011C0088BB03E010E0C3DF8FED88BB03E010E0BEDF8FEB6E
:1401300088BB03E010E0B9DF8FE788BB03E010E0B4DF8FEF70
:1401440088BB03E010E0AFDFA895D0CF0895E2E00C94B80070
:14015800FA92EA92DA92CA92BA92AA927A936A935A934A9367
:14016C000895E1E049915991E0FD089569917991E1FD089564
:14018000A990B990E2FD0895C990D990E3FD0895E990F9902C
:020194000895CC
:00000001FF
