:040000000C9431002B
:040024000C946900CF
:140054003F065B4F666D7D077F6FFEFDFBF7CFE5D4E0CDBF83
:14006800DEBFC051D0400AEA08830024E0E6F0E010E0ED367A
:14007C00F10711F00192FBCF0083E2E6F0E0A0E6B0E010E0F9
:14009000E236F10721F0C89531960D92F9CF0E942602FFCF18
:1400A4008FEF8BBB8ABB88BB87BB85BB84BB82BB222421BADD
:1400B800089583E882BF83E083BF81E089BF0895EDDFF7DF5E
:1400CC0080E88FBF08952A923A920A931A932A933A938A9354
:1400E0009A93EA93FA932FB62A920E94D50283E882BF8091FE
:1400F40066009091670001961C0130926700209266008CE2A7
:1401080091E08215930530F422243324309267002092660041
:14011C00809168008F5F282E2092680087E0821518F42224A8
:1401300020926800809164009091650001961C0130926500CB
:140144002092640087EE93E08215930558F4222433243092CF
:14015800650020926400809163008F5F809363008BE3209022
:14016C006300821540F4809162008F5F809362002224209283
:1401800063008BE320906200821510F480936200409168003F
:1401940055274030450721F14130E0E05E0709F432C0423016
:1401A800E0E05E0709F440C04330E0E05E0709F44EC044300A
:1401BC00E0E05E0709F45CC04530E0E05E0709F47EC04630A6
:1401D000E0E05E0709F48CC04730E0E05E0709F49AC0BFC03B
:1401E4002AE030E00091630011270E948D02F80184E590E0BE
:1401F800E80FF91FE491EBBBEEE5F0E0E491E5BBACC02AE09B
:14020C0030E00091630011270E949102F80184E590E0E80FA4
:14022000F91FE491EBBBEFE5F0E0E491E5BB99C02AE030E06B
:140234000091620011270E948D02F80184E590E0E80FF91F79
:14024800E491EBBBE0E6F0E0E491E5BB86C02AE030E00091EB
:14025C00620011270E949102F80184E590E0E80FF91FE49169
:14027000EBBBE1E6F0E0E491E5BB73C080916C00813081F452
:140284002AE030E00091610011270E948D02F80184E590E01F
:14029800E80FF91FE491E068EBBB0EC02AE030E00091610006
:1402AC0011270E948D02F80184E590E0E80FF91FE491EBBBD9
:1402C000E2E6F0E0E491E5BB4CC02AE030E00091610011272D
:1402D4000E949102F80184E590E0E80FF91FE491EBBBE3E61C
:1402E800F0E0E491E5BB39C02AE030E00091600011270E943F
:1402FC008D02F80184E590E0E80FF91FE491EBBBE4E6F0E0C9
:14031000E491E5BB26C080916B00813081F42AE030E0009191
:14032400600011270E949102F80184E590E0E80FF91FE491A2
:14033800E068EBBB0EC02AE030E00091600011270E9491027D
:14034C00F80184E590E0E80FF91FE491EBBBE5E6F0E0E49191
:14036000E5BB2090660030906700222009F049C0332009F01C
:1403740046C084990DC0809163008F5F809363008BE320908F
:140388006300821518F422242092630085990DC080916200A2
:14039C008F5F809362008BE320906200821518F422242092CF
:1403B000620086990DC0809161008F5F809361008BE32090F9
:1403C4006100821518F422242092610087990DC0809160006A
:1403D8008F5F809360008BE320906000821518F42224209297
:1403EC006000829903C081E080936900839903C081E080938F
:140400006A000E94D80229902FBEF991E9919991899139914A
:140414002991199109913990299018950E94D3024427552749
:140428000BC06627772702C06F5F7F4F6C38E0E07E07D0F3C0
:14043C004F5F5F4F4017510790F30E94C702089522973CDE43
:1404500061C080916A00813019F522242FBE81E090E099831D
:14046400888321E630E008EC10E00E9426030AE010E0D4DF26
:1404780081E090E09983888320E630E009EC10E00E942603B2
:14048C000AE010E0C7DF222420926A0081E080936C0078948E
:1404A00080916900813019F522242FBE81E090E099838883E4
:1404B40021E630E008EC10E00E9402030AE010E0ADDF81E0CB
:1404C80090E09983888320E630E009EC10E00E9402030AE0FD
:1404DC0010E0A0DF789481E080936B00222420926900809140
:1404F0006B00813079F42090610030906300321449F4209008
:14050400600030906200321419F488B38E7F88BB9ECF22965E
:1405180008956894DA92D12E04C0E894DA92D12ED32617FF11
:14052C0004C0109500950F5F1F4F37FF04C0309520952F5FDF
:140540003F4F0E94AE02D7FE04C0109500950F5F1F4FD990AF
:140554000895689401C0E894EA92FA928A93EE24FF2480E102
:14056800000F111FEE1CFF1CE216F30618F0E21AF30A039591
:14057C008A95A1F716F40E2D1F2D8991F990E9900895E2E0A8
:140590000C94D902E8E00C94D902FA92EA92DA92CA92BA927D
:1405A400AA927A936A935A934A930895E1E049915991E0FD34
:1405B800089569917991E1FD0895A990B990E2FD0895C990BC
:1405CC00D990E3FD0895E990F99008951FBB0EBBE09A0DB3B9
:1405E00008950E94D5021FBB0EBB2DBB4FB7F894E29AE19ADD
:1405F400E199FECF4FBF002711270E94D80208950E94CF02B3
:14060800C22ED32EA02EB12E688579854C2D5D2D0EC00A2D4D
:14061C001B2D0E94EC02E42FF52F00838A2D9B2D0196A82E4C
:14063000B92E4F5F5F4F262E372E61507040222061F733206C
:1406440051F70E94CA0208950E94CF02C22ED32EA02EB12E3E
:14065800688579854C2D5D2D0EC0E42FF52F20810A2D1B2D7B
:14066C000E94F1028A2D9B2D0196A82EB92E4F5F5F4F262E62
:14068000372E61507040222061F7332051F70E94CA02089560
:00000001FF
