:040000000C9431002B
:140054003F065B4F666D7D077F6FFEFDFBF7CFE5D4E0CDBF83
:14006800DEBFC051D0400AEA08830024E0E6F0E010E0E53682
:14007C00F10711F00192FBCF0083E2E6F0E0A0E6B0E010E0F9
:14009000E236F10721F0C89531960D92F9CF0E94F000FFCF50
:1400A4000E946401442755270BC06627772702C06F5F7F4F06
:1400B8006437E4E07E07D0F34F5F5F4F4017510790F30E945D
:1400CC005B010895E199FECF1FBB0EBB2DBBE29AE19A0895C1
:1400E000E199FECF1FBB0EBBE09A0DB308950E946601402FD3
:1400F40028EE33E0042F11270E940D010093630028EE33E095
:14010800042F11270E94090124E630E00E940D01009362000D
:14011C0014E6042F0E9443011AE00E944501009361001AE0EC
:14013000042F0E944301009360000E94690108950E946601FD
:14014400A80184E590E0FA01E081FF27E80FF91FE491EBBB79
:14015800EEE5F0E0E491E5BB01E010E09FDF84E590E0FA01B8
:14016C00E181FF27E80FF91FE491EBBBEFE5F0E0E491E5BB14
:1401800001E010E08FDF84E590E0FA01E281FF27E80FF91FC0
:14019400E491EBBBE0E6F0E0E491E5BB01E010E07FDF84E5F9
:1401A80090E0FA01E381FF27E80FF91FE491EBBBE1E6F0E08D
:1401BC00E491E5BB01E010E06FDF0E94690108958FEF8BBB8E
:1401D0008ABB88BB87BB85BB84BB82BB81BB0895F5DF25E1E2
:1401E40008EE11E073DF0AE010E05ADF08EE11E075DF0093ED
:1401F80064000AE010E052DF0091640074DF03C000E610E0A3
:14020C0099DFFCCF08956894DA92D12E04C0E894DA92D12EEC
:14022000D32617FF04C0109500950F5F1F4F37FF04C0309522
:1402340020952F5F3F4F0E942A01D7FE04C0109500950F5FD7
:140248001F4FD9900895689401C0E894EA92FA928A93EE24BE
:14025C00FF2480E1000F111FEE1CFF1CE216F30618F0E21AB1
:14027000F30A03958A95A1F716F40E2D1F2D8991F990E99081
:140284000895689401C0E8942A93FA92EA92FF24EE2420E195
:14029800000FFF1CEE1CE11610F0E11A03952A95B9F70EF423
:1402AC000E2DE990F99029910895E2E00C946A01FA92EA92D5
:1402C000DA92CA92BA92AA927A936A935A934A930895E1E0A8
:1402D40049915991E0FD089569917991E1FD0895A990B990D7
:1202E800E2FD0895C990D990E3FD0895E990F9900895AA
:00000001FF
