:040000000C94330029
:110054005772697465203A200052656164203A200020
:14006600CFE5D4E0CDBFDEBFC051D0400AEA08830024E0E66B
:14007A00F0E010E0E036F10711F00192FBCF0083E5E6F0E028
:14008E00A0E6B0E010E0E536F10721F0C89531960D92F9CFA9
:1400A2000E949301FFCF0E949402C22EE02E2197AB84BC84E9
:1400B600442701C04395E42FFF27EA0DFB1DE4918FE18E1760
:1400CA00B8F3662714C0E62FFF27EA0DFB1DE491E8832C2D93
:1400DE002E2C822D8F5FE82E022D1ED08E2D803119F4EE2459
:1400F20081E0C8266395641750F321960E94910208950E94CA
:140106009802622FA02E4F774A2D4F70617009F040644068DA
:14011A002227042F31D00E948E0208950E949A02622F402F47
:14012E00262F042FE8DF0C8138D00E948B020895222708E3D9
:140142001FD005E010E0B7D1222708E319D005E010E0B1D1E9
:14015600222708E313D005E010E0ABD121E008E30DD021E063
:14016A0008E00AD021E001E007D021E006E004D021E00CE05E
:14017E0001D008950E949A02622F402F662309F01CD0C098FB
:14019200C19800004BBB0000C29A00000000C2980E948B0215
:1401A60008950E949C02402F0CD0C09AC19800004BBB000064
:1401BA00C29A00000000C2980E949F0208958FEF8BBBC0987F
:1401CE00C19A0000C29A0000000022242ABA09B301C009B303
:1401E20007FDFDCFC2988FEF8ABB089522242BBA8FEF8ABB91
:1401F60028BA87BB25BA83E084BB8FEF82BB21BA089500B36A
:14020A0008950E949C0284EA86BF26B627FEFDCF81B1887F4A
:14021E00883011F0002740C080EA83B984E886BF26B627FE94
:14023200FDCF81B1887F883111F0002733C003B984E886BF72
:1402460026B627FEFDCF81B1887F883211F0002727C084EA67
:14025A0086BF26B627FEFDCF81B1887F803111F000271CC090
:14026E0081EA83B984E886BF26B627FEFDCF81B1887F80346A
:1402820011F000270FC084E886BF26B627FEFDCF81B1887FBA
:14029600883511F0002704C043B184E986BF042F0E949F028F
:1402AA0008950E949A02422F602F84EA86BF26B627FEFDCFE5
:1402BE0081B1887F883011F001E02BC080EA83B984E886BF17
:1402D20026B627FEFDCF81B1887F883111F001E01EC063B97D
:1402E60084E886BF26B627FEFDCF81B1887F883211F001E0B1
:1402FA0012C043B984E886BF26B627FEFDCF81B1887F8832B1
:14030E0011F001E006C084E986BF0AE010E0CDD000270E9441
:140322008B02089522974427662760DF00E911E0C2D004DF5E
:1403360021E001E023DF21E00CE020DF84E590E099838883E3
:14034A0022270027ACDE0AE010E0B1D08DE590E09983888341
:14035E0021E00027A2DE0AE010E0A7D0A3C014E6042F0E9460
:140372007502802F805D8883222709E0D3DE0AE010E099D043
:140386001AE0042F0E9475021AE00E947302802F805D888375
:14039A0022270AE0C3DE0AE010E089D01AE0042F0E94730204
:1403AE00802F805D888322270BE0B6DE0AE010E07CD014E6BC
:1403C200062F0E947502802F805D888321E008E0A9DE0AE0E8
:1403D60010E06FD01AE0062F0E9475021AE00E947302802FDC
:1403EA00805D888321E009E099DE0AE010E05FD01AE0062F7E
:1403FE000E947302802F805D888321E00AE08CDE0AE010E00E
:1404120052D0F9DEA02ECA2CDD24C6018F3BE0E09E0711F120
:140426008FEB8C159D0534F0C6018F37E0E09E0711F129C004
:14043A00C6018F3DE0E09E0771F08F3DE0E09E0704F1C60168
:14044E008F3EE0E09E0709F01AC04F3FC0F4439516C022245F
:14046200241698F44A9511C0242F0AE01EDF8FEE8883222705
:140476000FE056DE08C00AE0C6DE602F8FEE888321E00FE0F2
:14048A004DDE08EC10E013D080E2888322270FE045DE0AE0BA
:14049E0010E00BD080E2888321E00FE03DDE0AE010E003D05A
:1404B2005CCF229608950E949C02A80105C008EE13E008D047
:1404C6004150504040304507C1F70E949F020895015010400C
:1404DA0081E090E080179107CCF30895689401C0E8942A93BC
:1404EE00FA92EA92FF24EE2420E1000FFF1CEE1CE11610F091
:14050200E11A03952A95B9F70EF40E2DE990F990299108954D
:14051600E2E00C94A002E4E00C94A002EE270C94A002FA92E4
:14052A00EA92DA92CA92BA92AA927A936A935A934A93089580
:14053E00E1E049915991E0FD089569917991E1FD0895A990F2
:14055200B990E2FD0895C990D990E3FD0895E990F9900895F2
:00000001FF
