:040000000C942A0032
:14005400CFE5D4E0CDBFDEBFC051D0400AEA08830024E0E67D
:14006800F0E010E0E036F10711F00192FBCF0083E4E5F0E03C
:14007C00A0E6B0E010E0E435F10721F0C89531960D92F9CFBD
:140090000E946E00FFCF8FEF8BBB22242ABA88BB87BB85BBCB
:1400A40024BA82BB82E081BB089522242AB882E08BB986E0BE
:1400B80080BD87E689B920BC88E18AB90895E7DFF2DF0895EF
:1400CC005D9BFECF0CB908955F9BFECF0CB10895F4DF06C03F
:1000E000F9DF402F242E209428BAF0DFF9CF0895AD
:00000001FF
