:040000000C94330029
:110054005772697465203A200052656164203A200020
:14006600CFE5D4E0CDBFDEBFC051D0400AEA08830024E0E66B
:14007A00F0E010E0E236F10711F00192FBCF0083E5E6F0E026
:14008E00A0E6B0E010E0E536F10721F0C89531960D92F9CFA9
:1400A2000E945502FFCF0E944503C22EE02E2197AB84BC8474
:1400B600442701C04395E42FFF27EA0DFB1DE4918FE18E1760
:1400CA00B8F3662714C0E62FFF27EA0DFB1DE491E8832C2D93
:1400DE002E2C822D8F5FE82E022D1ED08E2D803119F4EE2459
:1400F20081E0C8266395641750F321960E94420308950E9418
:140106004903622FA02E4F774A2D4F70617009F04064406828
:14011A002227042F31D00E943F0308950E944B03622F402FE3
:14012E00262F042FE8DF0C8138D00E943C030895222708E327
:140142001FD005E010E05CD0222708E319D005E010E056D0A1
:14015600222708E313D005E010E050D021E008E30DD021E0BF
:14016A0008E00AD021E001E007D021E006E004D021E00CE05E
:14017E0001D008950E944B03622F402F662309F01CD0C09849
:14019200C19800004BBB0000C29A00000000C2980E943C0363
:1401A60008950E944D03402F0CD0C09AC19800004BBB0000B2
:1401BA00C29A00000000C2980E94500308958FEF8BBBC098CD
:1401CE00C19A0000C29A0000000022242ABA09B301C009B303
:1401E20007FDFDCFC2988FEF8ABB089501E010E002C00F5F7E
:1401F6001F4F0637E4E01E07D0F308950E944B03B8014427ED
:14020A00552703C0EFDF4F5F5F4F46175707D0F30E943C0318
:14021E00089522242BBA8FEF8ABB28BA87BB25BA83E084BB9C
:140232008FEF82BB21BA089500B308950E944B03442755275E
:140246000BC06627772702C06F5F7F4F6937E0E07E07D0F3A8
:14025A004F5F5F4F4017510790F30E943C03089583E084BBE2
:14026E00A99A00000000000000000000000000000000A89AF7
:1402820000000000000000000000000000000000A998000027
:140296000000000000000000000000000000A8980000000014
:1402AA00000000000000000000000000089583E084BBA998C0
:1402BE0000000000000000000000000000000000A89A0000EA
:1402D2000000000000000000000000000000A99A00000000D5
:1402E600000000000000000000000000089583E084BBA89A83
:1402FA0000000000000000000000000000000000A8980000B0
:14030E00000000000000000000000000000008950E944B034E
:1403220083E084BB0093610066271FC040916100407811F4D6
:14033600A99801C0A99AA89A0000000000000000000000002C
:14034A0000000000A89800000000000000000000000000005F
:14035E00000020906100220C2092610063956830F8F20E941D
:140372003C0308950E944B03602F83E084BBA99A0000000037
:14038600000000000000000000000000A89800000000000023
:14039A000000000000000000000062DF40EA042FB9DFA3DF97
:1403AE00062FB6DFA0DF5ADF41EA042FB1DF9BDFA99A00000E
:1403C2000000000000000000000000000000442726C081E075
:1403D60084BB20906100220C20926100A89A00000000000040
:1403EA0000000000000000000000999905C0822D8E7F809339
:1403FE00610005C080916100816080936100A89800000000BE
:1404120000000000000000000000000043954830C0F249DFAC
:14042600009161000E943C0308950E944903422F602F83E001
:14043A0084BBA99A000000000000000000000000000000002C
:14044E00A8980000000000000000000000000000000004DF77
:1404620080EAA82E082F5ADF44DF062F57DF41DF042F54DFC2
:140476003EDF1FDF0000000000000000000000000000000057
:14048A000E943F0308950E944D0341E050E002C04F5F5F4F7C
:14049E0040175107DCF30E9450030895229744276627B7DEF4
:1404B20000E911E0A5DE42DE21E001E061DE21E00CE05EDE6F
:1404C60084E590E09983888322270027EADD0AE010E094DE9F
:1404DA008DE590E09983888321E00027E0DD0AE010E08ADEDE
:1404EE00A9C014E6042F0E942603802F805D8883222709E0D0
:1405020011DE0AE010E07CDE1AE0042F0E9426031AE00E942E
:140516002403802F805D888322270AE001DE0AE010E06CDEDD
:14052A001AE0042F0E942403802F805D888322270BE0F4DD2B
:14053E000AE010E05FDE14E6062F0E942603802F805D888301
:1405520021E008E0E7DD0AE010E052DE1AE0062F0E942603E4
:140566001AE00E942403802F805D888321E009E0D7DD0AE09F
:14057A0010E042DE1AE0062F0E942403802F805D888321E0CD
:14058E000AE0CADD0AE010E035DE50DEA02ECA2CDD24C60121
:1405A2008F3BE0E09E0711F18FEB8C159D0534F0C6018F37A6
:1405B600E0E09E0729F12FC0C6018F3DE0E09E0771F08F3D9E
:1405CA00E0E09E0734F1C6018F3EE0E09E0709F020C04F3F33
:1405DE00F0F443951CC022242416C8F44A9517C0242F0AE042
:1405F2001EDF04EC19E04BDF8FEE888322270FE091DD0BC0EC
:140606000AE0B6DE602F04EC19E03FDF8FEE888321E00FE054
:14061A0085DD08EC10E0F0DD80E2888322270FE07DDD0AE0D0
:14062E0010E0E8DD80E2888321E00FE075DD0AE010E0E0DDBD
:1406420056CF22960895689401C0E8942A93FA92EA92FF2409
:14065600EE2420E1000FFF1CEE1CE11610F0E11A03952A9500
:14066A00B9F70EF40E2DE990F99029910895E2E00C94510380
:14067E00E4E00C945103EE270C945103FA92EA92DA92CA92D7
:14069200BA92AA927A936A935A934A930895E1E049915991D6
:1406A600E0FD089569917991E1FD0895A990B990E2FD089549
:0E06BA00C990D990E3FD0895E990F990089554
:00000001FF
