:080000000C942C000C94830009
:040024000C94340103
:03005400C00000E9
:14005800CFE5D4E0CDBFDEBFC051D0400AEA08830024E1E678
:14006C00F0E010E0E137F10711F00192FBCF0083E6E5F0E034
:14008000A0E6B0E010E0E735F10721F0C89531960D92F9CFB6
:140094004DD0FFCF01E010E00F5F1F4F0637E4E01E07D4F3D3
:1400A80008953ED1B8014427552703C0F1DF4F5F5F4F4617AC
:1400BC005707D4F32BD1089522242ABA8FEF8BBB84B38E7F40
:1400D00084BB85B38E7F85BB81B38B7F81BB929A78948BB764
:1400E40080648BBF85B7826085BF089503B3017008958BB7D5
:1400F8008F7B8BBF08958BB780648BBF089532D1F6DF0AE034
:14010C0010E0CDDFCF9903C05CD039D008C0CE9903C057D0CA
:1401200034D003C0C89901C030D0E9DF36D118950AD0C8DFE5
:1401340054D003C004EF11E0B6DFFCCF0027112708958FEF12
:1401480087BB222428BA0895EDD044270EC0C69A02E310E071
:14015C00A6DF0E94F001A3DF43952224241618F400E213E0BC
:140170009CDFBEDF002311F0453068F3DAD00895D5D0402F14
:14018400E5DFD5D00895D0D0229744270EC0C69A02E310E09A
:1401980088DF0E94F00185DF43952224241618F400E213E0BC
:1401AC007EDFA0DF002311F4453068F384E590E0998388836B
:1401C00020E931E000271AD02296B3D00895C59A02E310E0F4
:1401D4006ADF88B38F7D88BB0895789483B7856083BF2224F4
:1401E80022BE089589B7816089BF089589B78E7F89BF08954E
:1401FC0095D0B901402F84E0849F0E94E401CB0101969183DC
:14021000808384E0849F0E94EA010C801D801182008284E021
:14022400849F0E94E40120803180222011F4332009F0DADF7F
:140238006FD0089584E0809F0E94E40120803180222011F434
:14024C00332059F084E0809F0E94E4010E94F601809F0E949E
:14026000EA0131822082089581D05ED0809160008F5F8093BC
:140274006000823009F04BC0442766273FC084E0869F0E943E
:14028800E4012080318081E090E08215930578F484E0869F37
:14029C00100181E690E0280E391EF101808191810197918328
:1402B0008083439524C084E0869F0E94E401808191818130A7
:1402C400E0E09E07D1F484E0869F0E94E4010E94F601869F2E
:1402D8000E94EA0120803180222011F4332059F085DF062FB8
:1402EC0084E0869F0E94EA01A081B181FD012FD077DF63954A
:14030000643008F4BECF222420926000442309F471DF02D0EE
:1403140042D01895E2E00CC0FA92EA92DA92CA92BA92AA9230
:140328007A936A935A934A930895E1E049915991E0FD089551
:14033C0069917991E1FD0895A990B990E2FD0895C990D9906E
:14035000E3FD0895E990F99008950A92C8950A923196C895C4
:14036400F02DE99109900994FA93EA93BA93AA939A938A93DA
:140378003A932A931A930A939A928A927A926A925A924A9285
:14038C003A922A921A920A920FB60A92089509900FBE099090
:1403A00019902990399049905990699079908990999009917E
:1403B40019912991399189919991A991B991E991F99108959E
:1403C800F00181E690E0E80FF91F0895F00183E690E0E80FEC
:1403DC00F91F089588B38F7B88BB02E310E0089522243324C1
:0803F0003182208284E00895AF
:00000001FF
