:040000000C9431002B
:040024000C94B40084
:140054003F065B4F666D7D077F6FFEFDFBF7CFE5D4E0CDBF83
:14006800DEBFC051D0400AEA08830024E0E6F0E010E0E8367F
:14007C00F10711F00192FBCF0083E2E6F0E0A0E6B0E010E0F9
:14009000E236F10721F0C89531960D92F9CF0E946F00FFCFD1
:1400A4008FEF8BBB8ABB88BB87BB85BB84BB82BB80E281BB60
:1400B800089583E882BF83E083BF81E089BF089583E88FBD49
:1400CC0082E08EBD0895E8DFF2DFF8DF80E88FBF0895249759
:1400E000F8DF3FC0209062003090630044245524FE0120827F
:1400F400318242825382FE01208031804280538048E853E163
:1401080060E070E05A924A923A922A928A019B010E94230215
:14011C004FEF53E060E070E07A936A935A934A930E94B8019F
:14013000FE010083118322833383FE012080318030926100D7
:14014400209260002090620030906300232C33242BBC8091C2
:1401580062009091630090708ABDC0CF249608952A923A92F8
:14016C000A931A932A933A938A939A93EA93FA932FB62A92B6
:1401800083E882BF809166009091670001961C0130926700E3
:140194002092660084E690E08215930530F4222433243092B3
:1401A800670020926600809164009091650001961C01309253
:1401BC0065002092640083E090E08215930530F422243324F1
:1401D00030926500209264002090640030906500222011F45E
:1401E400332099F080916400909165008130E0E09E07F9F031
:1401F8008230E0E09E0709F432C08330E0E09E0709F445C0D3
:14020C0058C02AE030E000916000109161000E949601F80187
:1402200084E590E0E80FF91FE491EBBBEEE5F0E0E491E5BB0F
:1402340044C024E630E000916000109161000E9496012AE062
:1402480030E00E949801F80184E590E0E80FF91FE491EBBB5B
:14025C00EFE5F0E0E491E5BB2CC028EE33E00091600010912E
:1402700061000E94960124E630E00E949801F80184E590E0B9
:14028400E80FF91FE491EBBBE0E6F0E0E491E5BB14C028EEA7
:1402980033E000916000109161000E949801F80184E590E03F
:1402AC00E80FF91FE491E068EBBBE1E6F0E0E491E5BB209070
:1402C000660030906700222021F5332011F582990DC08091F3
:1402D4006200909163008F3FE3E09E0728F4019690936300C1
:1402E80080936200839911C02090620030906300222011F424
:1402FC00332049F0809162009091630001979093630080933A
:14031000620029902FBEF991E991999189913991299119915B
:140324000991399029901895689401C0E894EA92FA928A939E
:14033800EE24FF2480E1000F111FEE1CFF1CE216F30618F0BE
:14034C00E21AF30A03958A95A1F716F40E2D1F2D8991F99021
:14036000E9900895E89401C068942FD0CC2408C0E89401C046
:14037400689429D037FD53D0B7FD5AD0772488249924AA2479
:14038800BB2441D0C1F044D0B1F0E8E2000F111F221F331F6F
:14039C00771C881C991CAA1CBB1C88169906AA06BB0628F0FE
:1403B000881A990AAA0ABB0A0395EA9559F726F4082D192D7F
:1403C4002A2D3B2D13C07A928A929A92AA92BA92CA92EA93DE
:1403D8008A939A93AA93BA938B859C85AD85BE85C32E0EF0A8
:1403EC00CB260895C7FC17D0B991A99199918991E991C9902A
:14040000B990A99099908990799024960895E02FE12BE22B9C
:14041400E32B0895E82FE92BEA2BEB2B089500951095209547
:1404280030950F5F1F4F2F4F3F4F089580959095A095B095C2
:14043C008F5F9F4FAF4FBF4F08950E9453027F920E946C020F
:1404500039F177240E94720219F48C019D0120C0089FB02C22
:14046400A12C289F902C812C189FA00C911C871C099FA00C80
:14047800911C871C199F900C811C0A9F900C811C389F800CEA
:14048C00299F800C1A9F800C0B9F800C0B2D1A2D292D382D53
:1404A0007F900C9461028A929A92AA92BA92EA938A939A939F
:1404B400AA93BA9389859A85AB85BC850895B991A9919991C1
:1404C8008991E991B990A9909990899024960895EE27E02B51
:1404DC00E12BE22BE32B0895EE27E82BE92BEA2BEB2B089544
:00000001FF
