:040000000C942A0032
:14005400CFE5D4E0CDBFDEBFC051D0400AEA08830024E0E67D
:14006800F0E010E0E036F10711F00192FBCF0083E4E5F0E03C
:14007C00A0E6B0E010E0E435F10721F0C89531960D92F9CFBD
:140090000E946B00FFCF01E010E002C00F5F1F4F0637E4E011
:1400A4001E07D0F308950E948200B8014427552703C0EFDF6E
:1400B8004F5F5F4F46175707D0F30E94790008958FEF81BBE8
:1400CC00222422BA81E785BD0895F8DF0AC004E110E0E5DF7D
:1400E000842F8F5F482F4F3F09F4442743BDF5CF0895E2E0DB
:1400F4000C948800FA92EA92DA92CA92BA92AA927A936A936E
:140108005A934A930895E1E049915991E0FD08956991799179
:14011C00E1FD0895A990B990E2FD0895C990D990E3FD089517
:06013000E990F99008952A
:00000001FF
