:040000000C942A0032
:040008000C947A00DA
:14005400CFE5D4E0CDBFDEBFC051D0400AEA08830024E0E67D
:14006800F0E010E0E236F10711F00192FBCF0083E4E5F0E03A
:14007C00A0E6B0E010E0E435F10721F0C89531960D92F9CFBD
:140090000E946100FFCF0E94A700442755270BC06627772765
:1400A40002C06F5F7F4F6437E4E07E07D0F34F5F5F4F401790
:1400B800510790F30E949E0008958FEF87BB88BB8FED81BBC1
:1400CC008FEF82BB88E085BF80E88BBF8FBF0AC0222428BAC7
:1400E00004EF11E0D8DF8FEF88BB04EF11E0D3DFF5CF0895B9
:1400F4000E94C00022243324309261002092600010C0959AC5
:1401080002E010E0C4DF82B38F7D82BB8091600090916100FD
:14011C0001969093610080936000809160009091610088388E
:14013000E3E19E0740F30E94D7001895E2E00C94AD00FA925E
:14014400EA92DA92CA92BA92AA927A936A935A934A9308956A
:14015800E1E049915991E0FD089569917991E1FD0895A990DC
:14016C00B990E2FD0895C990D990E3FD0895E990F9900895DC
:14018000FA93EA93BA93AA939A938A933A932A931A930A93B9
:140194009A928A927A926A925A924A923A922A921A920A926F
:1401A8000FB60A92089509900FBE0990199029903990499042
:1401BC00599069907990899099900991199129913991899120
:0C01D0009991A991B991E991F9910895D4
:00000001FF
