:140000000C943D000C9486020C9487020C9488020C94890269
:140014000C94A3010C948A020C948B020C948C020C948D02DE
:140028000C948E020C948F020C9490020C9491020C949202CA
:10003C000C9493020C9494020C9495020C949602DA
:140054003031323334353637383985868788010068616F68D0
:11006800616E6469616E7A690057656C636F6D65006D
:14007A00CFE5D4E0CDBFDEBFC051D0400AEA08830024E5E850
:14008E00F0E010E0E039F10711F00192FBCF0083E4E5F0E013
:1400A200A0E6B0E010E0E937F10721F0C89531960D92F9CF90
:1400B6000E945C01FFCF8FEF8BBB8ABB88BB222427BA85BBB6
:1400CA0084BB8EEF82BB8FE381BB08950CE215E002C00150E8
:1400DE00104000300107D9F708950E94A302B8014427552732
:1400F20003C0F0DF4F5F5F4F46175707D0F30E9497020895B6
:140106000E94A302422FB801F89403E010E0E9DF7FBB6EBBEA
:14011A004DBBE29AE19A22242CBA03E010E0DFDF78940E9467
:14012E009702089580E289BF22242FBC82E88EBD789408954E
:14014200222422BE85E083BF81E289BF7894089522242AB860
:1401560082E08BB986E080BD87E689B920BC88E18AB9089578
:14016A005D9BFECF0CB908950E94A502402F919A05E5F6DFB8
:14017E0002E010E0B2DF042FF1DF02E010E0ADDF01E8ECDFF5
:1401920002E010E0A8DF91980E94A80208950150104081E0EC
:1401A60090E080179107CCF308950E94A502A80105C008EE9D
:1401BA0013E0F1DF4150504040304507C1F70E94A8020895F0
:1401CE000E94A502402FA898A9984BBBAA9A04E110E0DFDF07
:1401E200AA980E94A80208950E94A502402FA89AA9984BBB9D
:1401F600AA9A08EC10E0D1DFAA980E94A802089501E0E2DF50
:14020A0005E010E0D0DF08950E94A102A22E602F4E815F816C
:14021E00AA2021F4062F0058D3DF09C0062F0054CFDF05C0E9
:14023200FA010081D9DF4F5F5F4FFA0120802220B9F70E94F9
:140246009A0208950E94A302622F402F662321F4042F0058FB
:14025A00B9DF03C0042F0054B5DF0C81C1DF0E949702089515
:14026E008FEF8ABB84B3876084BB0FE010E099DF08E3A6DF95
:1402820005E010E094DF08E3A1DF05E010E08FDF08E39CDF0C
:1402960005E010E08ADF08E397DF08E095DF01E093DF06E020
:1402AA0091DF0CE08FDF05E010E07DDF0895219702E310E01B
:1402BE0078DFFDDE02E310E074DF34DF02E310E070DFCEDFEE
:1402D20008EC10E06CDF96DF08EC10E068DF44E06DE770E081
:1402E60002E310E062DF0CC0FB01208028822227042FA8DFD9
:1402FA0043956F5F7F4F04EB10E055DFFB012080222081F713
:14030E0042E060E770E00CC0FB012080288221E0042F94DF69
:1403220043956F5F7F4F05EB10E041DFFB012080222081F7FD
:1403360004EF11E03ADF222420926E00219608952A923A9274
:14034A000A931A932A933A938A939A93EA932FB62A9206B5A8
:14035E0017B52090850030908600980122193309109386000B
:140372000093850080E094E08217930738F4293CE4E03E07BE
:1403860018F4002711273EC081E698E08217930738F4293261
:14039A00E9E03E0718F401E010E032C08EE89BE2821793074C
:1403AE0098F42635ECE23E0778F481E080938D0022242092DC
:1403C2008B0020928A002092890020928800209287008FC063
:1403D60088E594E38217930708F089C02032E5E33E0708F064
:1403EA0084C081E080938C00222420928B0020928A0020924A
:1403FE008900209288002092870075C080918B008F5F80931D
:140412008B00883058F420908A003324202A312A20928A00D5
:14042600220C20928A0063C080918B00883041F420908A0072
:14043A003324202A312A20928A0057C080918B00803158F4C6
:14044E00209089003324202A312A20928900220C20928900C1
:1404620048C080918B00803141F4209089003324202A312AC7
:14047600209289003CC080918B00883158F42090880033240B
:14048A00202A312A20928800220C209288002DC080918B008E
:14049E00883141F4209088003324202A312A2092880021C00D
:1404B20080918B00803258F4209087003324202A312A2092B7
:1404C6008700220C2092870012C080918B00803271F42090FF
:1404DA0087003324202A312A20928700222420928B0081E06E
:1404EE0080936F00F89429902FBEE991999189913991299104
:14050200199109913990299018951895189518951895189511
:1405160018951895189518951895189518951895189518950F
:14052A0018951895E2E00C94A902E4E00C94A902FA92EA923F
:14053E00DA92CA92BA92AA927A936A935A934A930895E1E027
:1405520049915991E0FD089569917991E1FD0895A990B99056
:12056600E2FD0895C990D990E3FD0895E990F990089529
:00000001FF
