:040000000C943B0021
:040020000C94CA036F
:140054002D54696D652020203A20203A20202D2D002D41546C
:14006800696D652020203A20203A202D2D00CFE5D4E0CDBFC7
:14007C00DEBFC051D0400AEA08830024E0E6F0E010E0EA3669
:14009000F10711F00192FBCF0083E6E7F0E0A0E6B0E010E0E0
:1400A400E637F10721F0C89531960D92F9CF0E946402FFCFC1
:1400B8000E944404C22EE02E2197AB84BC84442701C0439521
:1400CC00E42FFF27EA0DFB1DE4918FE18E17B8F3662714C042
:1400E000E62FFF27EA0DFB1DE491E8832C2D2E2C822D8F5F92
:1400F400E82E022D1ED08E2D803119F4EE2481E0C8266395F3
:14010800641750F321960E94410408950E944804622FA02E9D
:14011C004F774A2D4F70617009F0406440682227042F31D040
:140130000E943E0408950E944A04622F402F262F042FE8DFFB
:140144000C8138D00E943B040895222708E31FD005E010E09C
:140158005CD0222708E319D005E010E056D0222708E313D038
:14016C0005E010E050D021E008E30DD021E008E00AD021E0FD
:1401800001E007D021E006E004D021E00CE001D008950E94FB
:140194004A04622F402F662309F01CD0C098C19800004BBBE4
:1401A8000000C29A00000000C2980E943B0408950E944C041D
:1401BC00402F0CD0C09AC19800004BBB0000C29A00000000CF
:1401D000C2980E944F0408958FEF8BBBC098C19A0000C29A5C
:1401E4000000000022242ABA09B301C009B307FDFDCFC2987A
:1401F8008FEF8ABB089501E010E002C00F5F1F4F0637E4E023
:14020C001E07D0F308950E944A04B8014427552703C0EFDF38
:140220004F5F5F4F46175707D0F30E943B04089522242BBA47
:140234008FEF8ABB28BA87BB25BA83E084BB8FEF82BB21BAB8
:14024800089500B308950E944A04442755270BC066277727E8
:14025C0002C06F5F7F4F6937E0E07E07D0F34F5F5F4F4017D5
:14027000510790F30E943B04089583E084BBA99A000000003C
:14028400000000000000000000000000A89A00000000000024
:1402980000000000000000000000A998000000000000000011
:1402AC000000000000000000A89800000000000000000000FE
:1402C000000000000000089583E084BBA998000000000000AA
:1402D40000000000000000000000A89A0000000000000000D4
:1402E8000000000000000000A99A00000000000000000000BF
:1402FC00000000000000089583E084BBA89A0000000000006D
:1403100000000000000000000000A898000000000000000099
:14032400000000000000000008950E944A0483E084BB009303
:14033800610066271FC040916100407811F4A99801C0A99AB0
:14034C00A89A00000000000000000000000000000000A8981B
:14036000000000000000000000000000000000002090610078
:14037400220C2092610063956830F8F20E943B0408950E949A
:140388004A04602F83E084BBA99A000000000000000000009F
:14039C00000000000000A8980000000000000000000000000D
:1403B0000000000062DF40EA042FB9DFA3DF062FB6DFA0DF38
:1403C4005ADF41EA042FB1DF9BDFA99A000000000000000041
:1403D8000000000000000000442726C081E084BB209061000F
:1403EC00220C20926100A89A0000000000000000000000007A
:1404000000000000999905C0822D8E7F8093610005C08091EB
:140414006100816080936100A89800000000000000000000DE
:1404280000000000000043954830C0F249DF009161000E9402
:14043C003B0408950E944804422F602F83E084BBA99A0000FD
:140450000000000000000000000000000000A8980000000058
:1404640000000000000000000000000004DF80EAA82E082F2A
:140478005ADF44DF062F57DF41DF042F54DF3EDF1FDF000008
:14048C0000000000000000000000000000000E943E040895DB
:1404A0000E944C0441E050E002C04F5F5F4F40175107DCF369
:1404B4000E944F04089583EF8DBD8BEC8CBD84E08EBD0895DA
:1404C8002297B3D100E911E0A0DE3DDE21E001E05CDE21E053
:1404DC000CE059DE84E590E09983888322270027E5DD0AE0CD
:1404F00010E08FDE85E690E09983888321E00027DBDD0AE0CF
:1405040010E085DE42C11AE0009166000E942504802F805D45
:140518008883222706E00BDE0AE010E076DE1AE0009166008D
:14052C000E942304802F805D8883222707E0FDDD0AE010E077
:1405400068DE1AE0009167000E942504802F805D88832227C4
:1405540009E0EFDD0AE010E05ADE1AE0009167000E94230411
:14056800802F805D888322270AE0E1DD0AE010E04CDE1AE0F9
:14057C00009168000E942504802F805D888322270CE0D3DD2B
:140590000AE010E03EDE1AE0009168000E942304802F805D19
:1405A400888322270DE0C5DD0AE010E030DE1AE0009162008B
:1405B8000E942504802F805D888321E007E0B7DD0AE010E077
:1405CC0022DE1AE0009162000E942304802F805D888321E0CD
:1405E00008E0A9DD0AE010E014DE1AE0009163000E94250414
:1405F400802F805D888321E00AE09BDD0AE010E006DE1AE041
:14060800009163000E942304802F805D888321E00BE08DDD34
:14061C000AE010E0F8DD13DE602F462F55274F3DE0E05E07F9
:1406300009F441C08FED90E08417950784F04F37E0E05E0776
:1406440009F45DC04F37E0E05E070CF493C04F3BE0E05E07DB
:1406580009F43CC08DC0473FE0E05E0709F472C087EF90E088
:14066C00841795072CF04F3EE0E05E0739F07EC04B3FE0E0C4
:140680005E0709F44CC078C0809167008F5F809367008BE372
:1406940020906700821508F06DC022242092670080916600A9
:1406A800873108F065C08F5F8093660061C0809166008F5F7C
:1406BC008093660087E120906600821508F056C02224209296
:1406D000660052C0809163008F5F809363008BE32090630045
:1406E400821508F047C022242092630080916200873108F0EE
:1406F8003FC08F5F809362003BC0809162008F5F80936200BB
:14070C0087E120906200821588F52224209262002DC0209153
:1407200062000BE08DDE0AE010E073DD209163000CE086DE7F
:140734000AE010E06CDD87E5888321E00DE0F9DC0AE010E07A
:1407480064DD16C00BE01BDE009362000AE010E05CDD0CE0AE
:14075C0014DE009363000AE010E055DD82E5888321E00DE035
:14077000E2DC0AE010E04DDD0CE211E04ADD80E2888321E03F
:140784000DE0D7DC0AE010E042DDBDCE229608952A923A9260
:140798008A939A932FB62A9283EF8DBD8BEC8CBD809169006C
:1407AC008F5F282E209269008A3040F022242092690080917E
:1407C00068008F5F80936800809168008C3340F022242092F4
:1407D4006800809167008F5F80936700809167008C3340F062
:1407E800222420926700809166008F5F809366008091660049
:1407FC00883118F0222420926600209062003090660032144C
:1408100041F42090630030906700321411F4C79801C0C79A99
:1408240029902FBE99918991399029901895F894FDDC41DE23
:14083800222425BE2BBE84E089BF78940895689401C0E8940C
:14084C002A93FA92EA92FF24EE2420E1000FFF1CEE1CE11672
:1408600010F0E11A03952A95B9F70EF40E2DE990F990299189
:140874000895E2E00C945004E4E00C945004EE270C9450045C
:14088800FA92EA92DA92CA92BA92AA927A936A935A934A9330
:14089C000895E1E049915991E0FD089569917991E1FD08952D
:1408B000A990B990E2FD0895C990D990E3FD0895E990F990F5
:0208C400089595
:00000001FF
