:040000000C942A0032
:14005400CFE5D4E0CDBFDEBFC051D0400AEA08830024E0E67D
:14006800F0E010E0E036F10711F00192FBCF0083E4E5F0E03C
:14007C00A0E6B0E010E0E435F10721F0C89531960D92F9CFBD
:140090000E944B00FFCF81E088BB87BB8FEC8DBD8CE28CBD3F
:1400A40083E08EBD28B724702430E1F784E088BF8FEC8DBD8B
:1400B8008CE28CBD0395093019F488B38E7F88BB0A3070F377
:0800CC000027C09AEBCF089554
:00000001FF
