:0C0000000C942F000C949A000C94A400A7
:140054003F065B4F666D7D077F6FCFE5D4E0CDBFDEBFC051C2
:14006800D0400AEA08830024E0E6F0E010E0E236F10711F03A
:14007C000192FBCF0083EEE5F0E0A0E6B0E010E0EE35F107CC
:1400900021F0C89531960D92F9CF0E946600FFCF0E94B70091
:1400A400442755270BC06627772702C06F5F7F4F6437E4E0AE
:1400B8007E07D0F34F5F5F4F4017510790F30E94AE00089571
:1400CC008FEF8ABB84BB22242BBA85BB88BB87BB82BB83EF7F
:1400E00081BB8AE085BF80EC8BBF80E88FBF20C08091610064
:1400F400813061F4E5E5F0E0E491EBBB8EEF85BB88B38E7F38
:1401080088BB00ED17E0C8DF80916000813061F4E6E5F0E003
:14011C00E491EBBB8EEF85BB88B38E7F88BB00ED17E0B8DFF1
:14013000DFCF08958A938FB78A9381E08093610089918FBFB3
:14014400899118958A938FB78A9381E08093600089918FBF24
:1401580089911895E2E00C94BD00FA92EA92DA92CA92BA9291
:14016C00AA927A936A935A934A930895E1E049915991E0FD70
:14018000089569917991E1FD0895A990B990E2FD0895C990F8
:0C019400D990E3FD0895E990F9900895DA
:00000001FF
